:20010000D8A5458545A27BE8E8B50010FB8642291FC545D0F209A09500B4012901AA843B44
:20012000B45F20B302A645B46520B302A645CAD012AD0617290FAA8546BDE71F853CA08F3D
:2001400020B302A90B4C0002A641E64CD002F601A0FC20B302C906B0034CA517C90B90E89F
:20016000F09EC90F90DFD0E8A953853CA09E20B302A0E1C546D0D1A903A645F02AA900E0BB
:2001800005B03BCAF0DAE63DEAD01CA642B501A0FFC84A9005E8C4F7F009C005D0F3A0F743
:2001A0004C2202B501291F4C0301A449A54588F01188F021A20788F024A20588F01FA085E0
:2001C000D0DEC908D0F8A540F0F4C88440A0BD20B3024C7F02C906D0E5A90D10CAE445D077
:2001E000DDB54FD565F0D795658A10BBA63FB5019500E8E0EFD0F7600000000000000000C0
:2002000038E90DAA4A2901A849018543E886552080178448F00FA655D00EA547C904D00829
:20022000A0FA20B3024C4801B46220B302C64830F4A444843FB6008649B45720B302A45594
:200240003004C915D004C644D0E3883005F0294CAA01A0F7A649CAD008A53E2928C920D019
:20026000BF8A30BEE647A53E154D853E209017C64120EC01A04CD0AAE641209017E63FC6F8
:2002800047A649A53E38F54C853E20EC01A54010E3A649CAD0DEA545C908D0D8A985853F68
:2002A0008640A9058DBD03A0BD20B302F0C1188A654AA8844AA200A00086FE86FD18B14A77
:2002C000486A4A4A4AF032C901F034AAB51FA6FD95F068E886FD290FC901F026AAB51FA6C9
:2002E000FD95F0C8E8E00690D2A0C020000020000088D0F7A6FED0B6606885FEC810BC6824
:2003000010DAC838B0B835882B0516EB1685AB238503FB54FFBAA15F07CDA95F1652B8CDDB
:20032000516CF32135F12785F36ED50511B741350823BACC0CFA1659F13E881804CD558FF7
:2003400013B2D5FBA165F13A84F32135F4A95F2F6A8507FD7136DE9958FC6212DF051B10F7
:20036000793604FC87DF0979FD650DA18CD5BF08CDB52151AF167DF101154F04BA1828F62E
:20038000288F2F13859AF14A18EFBF2DEFBF79082FC71391AF167D07FC218CF2DD730515100
:2003A00021373F0511EDDA9FF7CF1DF6AEC5FEC5F107628D547FC551061118FD650E4B2140
:2003C0003A9F04C32B5409AEDF111804F52DCF0D87DD850FF118E5F4BA161004F117B4FBC8
:2003E000AA15F459FFBA4F32BB1810C1AF167D13BADDAF12AB5CDF3299AD6A17F19FFF1CDC
:00000001FF
