:200200002064058545A27BE8E8B50010FB8642291FC545D0F209A09500B4012901AA843B7C
:20022000B45F20B303A645B46520B303A645CAD012AD0617290FAA8546BDE71F853CA08F3A
:2002400020B303A90B4C0003A641E64CD002F601A0FC20B303C906B0034C2505C90B90E82D
:20026000F09EC90F90DFD0E8A953853CA09E20B303A0E1C546D0D1A903A645F02AA900E0B9
:2002800005B03BCAF0DAE63DEAD01CA642B501A0FFC84A9005E8C4F7F009C005D0F3A0F742
:2002A0004C2203B501291F4C0302A449A54588F01188F021A20788F024A20588F01FA085DD
:2002C000D0DEC908D0F8A540F0F4C88440A0BD20B3034C7F03C906D0E5A90D10CAE445D074
:2002E000DDB54FD565F0D795658A10BBA63FB5019500E8E0EFD0F7600000000000000000BF
:2003000038E90DAA4A2901A849018543E886552000058448F00FA655D00EA547C904D008BA
:20032000A0FA20B3034C4802B46220B303C64830F4A444843FB6008649B45720B303A4558F
:200340003004C915D004C644D0E3883005F0294CAA02A0F7A649CAD008A53E2928C920D017
:20036000BF8A30BEE647A53E154D853E201005C64120EC02A04CD0AAE641201005E63FC61A
:2003800047A649A53E38F54C853E20EC02A54010E3A649CAD0DEA545C908D0D8A985853F66
:2003A0008640A9058DBD04A0BD20B303F0C1188A654AA8844AA200A00086FE86FD18B14A74
:2003C000486A4A4A4AF032C901F034AAB51FA6FD95F068E886FD290FC901F026AAB51FA6C8
:2003E000FD95F0C8E8E00690D2A0C020000020000088D0F7A6FED0B6606885FEC810BC6823
:2004000010DAC838B0B835882B0516EB1685AB238503FB54FFBAA15F07CDA95F1652B8CDDA
:20042000516CF32135F12785F36ED50511B741350823BACC0CFA1659F13E881804CD558FF6
:2004400013B2D5FBA165F13A84F32135F4A95F2F6A8507FD7136DE9958FC6212DF051B10F6
:20046000793604FC87DF0979FD650DA18CD5BF08CDB52151AF167DF101154F04BA1828F62D
:20048000288F2F13859AF14A18EFBF2DEFBF79082FC71391AF167D07FC218CF2DD730515FF
:2004A00021373F0511EDDA9FF7CF1DF6AEC5FEC5F107628D547FC551061118FD650E4B213F
:2004C0003A9F04C32B5409AEDF111804F52DCF0D87DD850FF118E5F4BA161004F117B4FBC7
:2004E000AA15F459FFBA4F32BB1810C1AF167D13BADDAF12AB5CDF3299AD6A17F19FFF1CDB
:20050000B641A0FFE88644B5010A30F8C890F560A443200005A2EEB5009501CAE444D0F75E
:20052000A549950160A884F7A645B565D54FF008E005F024E007F022E00CD004A547D0180D
:20054000E003D004A53E3011E008D015A540F01188F00EA0B14C22038888C003D0034C20B3
:20056000034C8B02A9898560A9B58561A9E78562A9D78563D8A54560000000000000000043
:2005800000000000000000000000000000000000000000000000000000000000000000005B
:2005A00000000000000000000000000000000000000000000000000000000000000000003B
:2005C00000000000000000000000000000000000000000000000000000000000000000001B
:2005E0000000000000000000000000000000000000000000000000000000000000000000FB
:200600004C24068545A27BE8E8B50010FB8642291FC545D0F260200306B5000A0A606D589A
:200620005C507900A206BD1D0695EFCAD0F886FE20E90318F8A90085618562A54CF010A54B
:200640006169018561A56269008562C64CD0F0A641B5018560F010A56169568561A5626923
:20066000028562D601D0F0D8A561290FAABDE71F85F5A5614A4A4A4AAABDE71F85F4A562E2
:200680004A4A4A4AA8F004AABDE71F85F2A562290FAA98D0038AF003BDE71F85F3A271A5EE
:2006A00045C906D006A53E2904F028A9008563200306A0012000058448F015B400A5631902
:2006C0004C008563CAC648D0F2A2390A3008B0034C12074C64074C0007000000000000000D
:2006E0000000000000000000000000000000000000000000000000000000000000000000FA
:2007000090D1A27CA562D0CBA940C56190C5A277D0C1A902201606101AA90F201606101382
:20072000A012982016063004A279D0A78810F3A25ED0A0A23DA540F09AA53DD096A91420FF
:200740001606A276A8308CA900201606A206A83082A004B970072016063004A23FD0058898
:1507600010F1A21E86F0A94085F12000004C6A070509151617C1
:00000001FF
