:200100004C24018545A27BE8E8B50010FB8642291FC545D0F260200301B5000A0A606D58A9
:200120005C507900A206BD1D0195EFCAD0F886FE20E90218F8A90085618562A54CF010A556
:200140006169018561A56269008562C64CD0F0A641B5018560F010A56169568561A5626928
:20016000028562D601D0F0D8A561290FAABDE71F85F5A5614A4A4A4AAABDE71F85F4A562E7
:200180004A4A4A4AA8F004AABDE71F85F2A562290FAA98D0038AF003BDE71F85F3A271A5F3
:2001A00045C906D006A53E2904F028A9008563200301A0012080178448F015B400A563197A
:2001C0004C008563CAC648D0F2A2390A3008B0034C12024C64024C00020000000000000021
:2001E0000000000000000000000000000000000000000000000000000000000000000000FF
:2002000090D1A27CA562D0CBA940C56190C5A277D0C1A902201601101AA90F201601101391
:20022000A012982016013004A279D0A78810F3A25ED0A0A23DA540F09AA53DD096A9142009
:200240001601A276A8308CA900201601A206A83082A004B970022016013004A23FD00588B1
:1502600010F1A21E86F0A94085F12000004C6A020509151617CB
:00000001FF
